:060000000A128A11FC2F18
:100F44000D30831203139F000830F200F20BA82F18
:100F5400831203139F149F18B02FB12FAD2F1E08B7
:100F6400F100831603131E08F0000800FF308316F7
:100F740003138500FF3083160317880083160313B9
:100F840087018312031387010F309D000430920000
:100F9400FF308316031392000A128A11A2270A1241
:100FA4008A117108F6007008F5007608F4007508D7
:100FB400F3000310F40CF30C0310F40CF30C73089B
:100FC400831203139B0075080139F300F30E1D0807
:100FD4007306EF3973069D0075080239F300F30EAA
:100FE400F30D1D087306DF3973069D00CE2F0A1218
:0C0FF4008A11002883010A128A11B82F0C
:04400E00F43FFF3F3D
:00000001FF
