:060000000A128A11FC2F18
:100F6E003F30831203139F05C3309F051F14831652
:100F7E0003139F17C22FC32FC42F831203139F1463
:100F8E009F18CA2FCB2FC72F1E08F10083160313ED
:100F9E001E08F00008008316031388018312031342
:100FAE00880101308316031788000130831603135E
:100FBE0085000A128A11B7270A128A117108F500E4
:100FCE007008F4007508F3007408F2000430031082
:100FDE00F30CF20CFF3E031DEE2F72088312031367
:100FEE008800E02F0A128A11002883010A128A1142
:020FFE00D22FF0
:04400E00F43FFF3F3D
:00000001FF
